:020000040800F2
:10000000B04400209901000873370008D52E00087D
:100010007137000891140008B9430008000000007F
:1000200000000000000000000000000001010008C6
:10003000D7140008000000004501000895370008AB
:10004000B3010008B3010008B3010008B3010008C0
:10005000B3010008B3010008B3010008B3010008B0
:10006000B3010008B3010008B3010008B3010008A0
:10007000B3010008B301000895140008A11400089A
:10008000B3010008B3010008B3010008B301000880
:10009000B3010008B3010008B3010008B301000870
:1000A000B3010008B3010008B3010008B301000860
:1000B000B3010008B3010008B3010008B301000850
:1000C000B3010008B3010008B3010008B301000840
:1000D000B301000831430008B3010008B301000870
:1000E000B3010008B3010008B3010008DFF80CD029
:1000F00000F0E0FF00480047F95F0008B04400202E
:10010000224B19680868B0E8F00F80F30988BFF344
:100110006F8F4FF0000080F311884EF00D0E704786
:100120000000000006480068006880F3088862B696
:1001300061B6BFF34F8FBFF36F8F00DF00BF00BF0B
:1001400008ED00E0EFF30980BFF36F8F0F4B1A68E3
:1001500020E9F00F106008B54FF0500080F31188CF
:10016000BFF34F8FBFF36F8F07F042FA4FF00000DD
:1001700080F31188BDE8084019680868B0E8F00FFE
:1001800080F30988BFF36F8F704700BF7C000020A9
:10019000EFF3058070470000064880470648004797
:1001A000FEE7FEE7FEE7FEE7FEE7FEE7FEE7FEE727
:1001B000FEE7FEE7FD370008ED0000082DE9F041FD
:1001C0000024061B254671F1000605DA01240027EC
:1001D000D0EB070067EB0101161E73F1000605DA8C
:1001E0000027D2EB0702012567EB030300F084FD33
:1001F00086460E4617469C46AC4204D00025D0EBFE
:10020000050E65EB010624B10020D2EB000760EB80
:10021000030C704631463A466346BDE8F081202A19
:1002200004DB203A21FA02F00021704721FA02F3A0
:10023000D040C2F12002914008431946704740EA7D
:1002400001039B0703D009E008C9121F08C0042A54
:10025000FAD203E011F8013B00F8013B521EF9D23B
:10026000704700000FB400B58DB010A909900B9035
:1002700000914FF0FF300A9000200C900548069046
:10028000054807906A4609A80F9900F09BFD0DB03C
:100290005DF814FBE10D0008FF0D00082DE9FF5F7C
:1002A0001D464FF0FF3BD5E9014691465F464FF0B2
:1002B0000008A9697F1C01988847296A82468847F7
:1002C0000028F6D1BAF1FF3F0CD024F4C064002E10
:1002D00019DD600614D5BAF12B0F09D0BAF12D0F34
:1002E0000ED103E0584604B0BDE8F09F44F48064AA
:1002F000A9697F1C01988847761E8246002E02DD80
:10030000BAF1300F03D0B9F1000F26D032E0A9695D
:10031000761E44F400747F1C019888478246002EA4
:1003200005DDBAF1780F06D0BAF1580F03D0B9F154
:10033000000F10D01EE0B9F1000F02D0B9F1100F7C
:1003400018D1A969761E24F400747F1C019888478F
:100350008246102002E0082000E00A20814609E0E1
:1003600008FB0908A969761E44F400747F1C0198F3
:1003700088478246002E05DD4946504600F00EFDB6
:100380000028EDDAE96901988847A00502D46FF0EA
:100390000100A8E7E00725D1600613D5600502D566
:1003A000C8F1000000E0404629680A1D2A6009687B
:1003B000220501D5087015E0220701D5088011E05B
:1003C00008600FE02868011D29600068210502D53A
:1003D00080F8008006E0210702D5A0F8008001E047
:1003E000C0F8008038467EE72DE9FF4F087883B0DB
:1003F0009946FF2805D0491C2D2804D00024002050
:1004000008E000200BE00124F9E700EB800003EB9B
:100410004000491C0B78FF2BF7D104B14042002368
:100420000293147819461D462D2C01D02B2C04D193
:10043000521C2D2C13D000240294AA461478FF2CB1
:100440000FD00A25A3FB057801FB05814FF0000CB6
:1004500003FB0C11521CE3194AEB0101EEE70124E6
:10046000EAE7814453EA010002D019F5C87F06DAB1
:1004700003980021C0E9001107B0BDE8F08F002506
:10048000AE4E2F46DFF8B882184600F0D6FDCDE913
:100490000001B9F1000002DAC9F1000400E00446ED
:1004A0000023A74A1AEB030B42EB045A12E0E007C1
:1004B00007D02A4633463846414600F0C0FA074680
:1004C00088462A4633461046194600F0B8FA0546D3
:1004D0000E466410002CEAD1DDE90001B9F1000FED
:1004E0005A46534606DA00F01CFB3A46434600F0F3
:1004F00018FB05E000F0A3FA3A46434600F09FFAE5
:10050000029A0AB181F00041039AC2E90001B3E7FF
:100510002DE9FF4F1F468DB0D7E901464FF0FF3858
:100520002E2045464FF000090B90B9696D1C0E98BE
:100530008847396A824688470028F6D1BAF1FF3FDA
:100540000AD024F4D064002E11DDBAF12B0F08D0AC
:10055000BAF12D0F0BD102E0404611B08DE744F403
:100560008064B9696D1C0E9888478246761E69467C
:10057000600501D52D2000E02B208DF8000001F151
:10058000010B0DF1200809E0B9696D1C0E98884730
:1005900082460F9844F40074761E0560002E02DD3A
:1005A000BAF1300FF0D00B998A453ED144F0800467
:1005B00006E00F99681CA9F1010944F40074086071
:1005C000B9696D1C761E0E98884782463028F0D097
:1005D0002BE00B998A4505D1200603D444F0800412
:1005E000761E18E0504604F019FB08B30DF1130114
:1005F000761E44F400748B4508D2AAF130000BF843
:10060000010B200607D5A9F1010003E0200602D462
:1006100009F101008146A00502D50F99681C086008
:10062000B9696D1C0E9888478246002ED1DC53E0D4
:10063000002E51DDBAF1650F02D0BAF1450F4BD152
:10064000A00549D5B9696D1C24F44074761E0E9836
:1006500088478246002E0CDD2B2804D0BAF12D0FDE
:1006600007D144F48074B9696D1C0E98884782469E
:10067000761EE00501D52D2100E02B2108F8011B95
:10068000CDF82C8021E00DF12901761E44F4007490
:1006900088450CD2AAF1300010F0FF0088F8000065
:1006A00002D10B99884509D908F1010806E0E00557
:1006B00001D5244801E042F20F708146B9696D1CF2
:1006C0000E98884782460F980560002E04DD50463C
:1006D00004F0A4FA0028D6D1F9690E988847FF20C3
:1006E0008BF8000088F800000020069007904B4629
:1006F0006A4608A906A8FFF777FEA00502D46FF0A6
:1007000001002AE714F0240F0AD0E00714D1DDE934
:1007100006123868031D3B600068C0E900120BE058
:10072000DDE9060100F0A1FA0146E00704D13868CE
:10073000021D3A600068016028460EE70000144080
:100740000000F03FF1D8FFFFF0B480EA0102D40FBF
:100750004200B2EB410F02D20246084611464A005F
:1007600042D0C30DDDB2C1F3C752AD1A202D35DA28
:10077000C1F3160141F4000204B15242C5F1200652
:1007800002FA06F12A411044B3EBD05F23D0C4B182
:10079000012DA0EBC35009DCF0BC4FF0004202EA8F
:1007A000C352DBB200F5000000F043BB400000F193
:1007B000807000EBC350A0F1807040EAD170490016
:1007C00009E0490841EAC071A0EBC35000F5000000
:1007D000400800EBC350F0BC00F022BB6142012294
:1007E00002EB4101001BF6E7F0BC704781F00041CD
:1007F000AAE780F00040A7E780EA010210B502F006
:100800000043400022D04A001FD0010E01EB1261CC
:10081000C0F35600C2F3560240F4000042F4000256
:10082000A0FB022000047F39140400D0401C50EAD1
:10083000124001D44000491EC2B20C0604EBD01095
:10084000401C4008802A02D003E0002010BD20F0A8
:100850000100002900DA0020184310BD30B480EAFE
:10086000010202F0004530F0004221F0004013D0B8
:1008700090B1C30DD40DC2F31601C0F31600E41AF3
:1008800041F4000140F400027D34914201D3641C24
:1008900000E04900002C02DA30BC002070474FF421
:1008A00000000023914201D3891A034340084FEA14
:1008B0004101F7D151B1914202D14FF0004105E021
:1008C00002D24FF0010101E06FF0010103EBC450CF
:1008D000284430BC00F0A4BA420005D0C0F3C7528F
:1008E0005242914201DC0020704700EBC15070473A
:1008F0002DE9FE4F804681EA0300C00F0C460090B0
:1009000021F0004123F00045B8EB0200A94105D2D7
:100910004046214690461C460B46024623F00040C6
:10092000104347D0270DC7F30A00C3F30A510290C2
:10093000401A019040286BDAC3F3130040F4801B87
:100940000098924620B10023D2EB030A63EB0B0B15
:1009500001985946C0F14002504600F0FEF90646A3
:100960000D4650465946019A00F006FA10EB080071
:100970006141002487EA115284EAE7731A4340D0A8
:10098000009A62B3019A012A4FEA075215DC001B54
:1009900061EB02014FF0004202EA0752CDE900424A
:1009A000001C41F5801132462B4600F07FFA03B05F
:1009B000BDE8F08F40462146F9E7001B61EB0201DC
:1009C000001C41F5801300185B412018A2F50017A8
:1009D00047EB030140EAD570B6196D4111E06D088F
:1009E0004FEA360645EAC0754FEA0752001B61EB35
:1009F0000201001C41F5801149084FEA300000193E
:100A0000514132462B4603B0BDE8F04F00F03FBAEB
:100A10000098012240000023D0EB020263EBE07358
:100A2000009821464FEAE074B8EB000061EB040146
:100A3000E9E783F000435BE781F0004158E72DE9E7
:100A4000FE4F81EA030404F0004421F000410094C9
:100A50004FF0000B23F0004350EA01045ED052EA4D
:100A600003045BD0C3F30A54C1F30A552C44A4F227
:100A7000F3340194A0FB0254C1F3130141F480113B
:100A8000C3F3130343F4801301FB024400FB034E42
:100A9000840A970A44EA815447EA8357A4FB07680B
:100AA00002958D0A05FB07854FEA932C04FB0C5435
:100AB0002705029D4FEA065847EA1637B5EB0805A9
:100AC0006EEB070C870E920E47EA811742EA8312FB
:100AD000A7FB0201B6EB0B0164EB00042B0D43EA0C
:100AE0000C335E1844EB1C50DA465146E7FB02011A
:100AF000C5F313044FEA0B3343EA14534FEA0432AD
:100B0000019C43EA0603A4F10C040294009CCDE985
:100B100000B400F0CBF903B0BDE8F08F002001462F
:100B2000F9E72DE9F04D81EA030404F0004B21F0D0
:100B3000004514464FF0000A23F0004150EA050238
:100B400020D054EA01021DD0C5F30A570246C5F36E
:100B50001303C1F31300C1F30A5640F4801543F4A4
:100B60008013A7EB0608101BD64608F2FD3873EB7E
:100B7000050002D308F1010801E092185B41B8F1C9
:100B8000000F03DA00200146BDE8F08D00204FF48D
:100B90008011064684460EE0171B73EB050705D34C
:100BA000121B63EB050306434CEA010C49084FEAAC
:100BB000300092185B4150EA0107EDD152EA030080
:100BC00012D082EA040083EA0501084305D0101B15
:100BD000AB4106D20122002306E000224FF0004381
:100BE00002E06FF0010253101AEB06004CEB0851C3
:100BF00010EB0A0041EB0B01BDE8F04D00F047B9E6
:100C0000C10F80EAE0700844CA079623002100F073
:100C100010B996230022114600F00BB920F00040D5
:100C2000C10DC0F3160040F400007F2901DA002056
:100C30007047962903DCC1F19601C8407047963988
:100C40008840704700F0004230F000400AD0C10DEB
:100C500001F56071C0F3160042EA0151C208400775
:100C60001143704700200146704701F0004330B443
:100C700021F0004150EA010206D00A0DA2F560728F
:100C8000C1F31301002A02DC30BC00207047440F7E
:100C900044EAC104C100E01830BC00EBC25000F0CF
:100CA000BFB80000002801DBC0F10040002901DBD3
:100CB000C1F1004181427047002801DBC0F10040D2
:100CC000002901DBC1F100418842704730B50B4675
:100CD000014600202022012409E021FA02F59D426C
:100CE00005D303FA02F5491B04FA02F52844151E40
:100CF000A2F10102F1DC30BD2DE9F05F05460020D4
:100D000092469B4688460646814640241BE028467C
:100D1000414647462246FFF782FA53465A46C01AD2
:100D2000914110D311461846224600F016F82D1AAC
:100D300067EB01084F4622460120002100F00DF824
:100D400017EB00094E41201EA4F10104DFDC4846E8
:100D500031462A464346BDE8F09F202A04DB203A6C
:100D600000FA02F1002070479140C2F1200320FAFE
:100D700003F3194390407047202A06DBCB17203A33
:100D800041FA02F043EAE07306E041FA02F3D04090
:100D9000C2F1200291400843194670473A2800D218
:100DA000303820F02002412A01D3A2F137008842D6
:100DB00001D34FF0FF30704702681144137801608F
:100DC00018467047D16004495161044911620021FD
:100DD0001161114600F086B9B90D0008D91000085C
:100DE000426842B1016811F8013B23B1521EC0E9CB
:100DF0000012184670470121C160881E7047426882
:100E00005AB1C368016843B983688B4205D0491E53
:100E1000521CC0E90012002070474FF0FF307047AD
:100E20000029A8BF7047401C490008BF20F00100FE
:100E3000704710B4B0FA80FC00FA0CF050EA0104DC
:100E400004BF10BC704749B1CCF1200421FA04F46E
:100E500011FA0CF118BF012121430843A3EB0C0147
:100E6000CB1D4FEA00614FEA102042BF002010BCAA
:100E7000704700EBC35010440029A4BF10BC70475A
:100E8000401C490008BF20F0010010BC704710B59D
:100E9000141E73F1000408DA401C41F1000192189D
:100EA0005B411A4301D120F0010010BD2DE9F04D46
:100EB00092469B4611B1B1FA81F202E0B0FA80F29B
:100EC00020329046FFF749FF04460F4640EA0A00E9
:100ED00041EA0B0153465A46084313D0114653EAE0
:100EE000010019D0C8F140025046FFF798F90546B5
:100EF0000E46504659464246FFF72FFF084305D09D
:100F0000012004E020463946BDE8F08D002005436D
:100F100046EAE0762C4337430A986305E40AA0EBDF
:100F200008000022FD0A44EA47540A3002D5002096
:100F30000146E9E7010510196941DDE90845001995
:100F40006941BDE8F04DA2E770B521F000430343CD
:100F50000CD0C1F30A550024D5EB040564EB04035F
:100F6000D617AD1AB34102DB0020014670BD201830
:100F700041EB025170BD2DE9F04D00231A461B1ABA
:100F80008A4103DB00200146BDE8F08DC1F30A521F
:100F9000C1F3130141F480154FF0000BD10702D1CA
:100FA00000186D41521E0027044640F2FF113846DA
:100FB00001EB620A3E468046024600204FF4801153
:100FC000FFF72DF9C2197141BB1846EB0100B4EBD4
:100FD000030C75EB000C04D3E41A65EB000517460F
:100FE0000E46241908F101006D4180463428E3DDE6
:100FF000F91946EB0600091BA84103D24FF0FF3256
:10100000134601E0002213461BEB070046EB0A5192
:10101000BDE8F04DFFF73BBF0EB5C10F80EAE070B1
:101020000844CA07002140F233438DE80E000A4607
:101030000B46FFF73BFF03B000BD0EB540F2334255
:1010400002920022CDE900221346FFF72FFF03B0E2
:1010500000BDC1F30A52C1F3130140F2FF3341F462
:1010600080119A4202DA00200146704740F2334371
:101070009A42A2F2334202DC5242FFF7D0B8FFF7A5
:101080006CBE000030B5041E71F1000404DB4FF0AB
:101090000044404264EB0101141E73F1000405DBBF
:1010A0001C464FF00043524263EB0403994208BFD1
:1010B000904230BD064C074D06E0E06840F0010369
:1010C00094E8070098471034AC42F6D3FFF712F8C3
:1010D000A8810008C8810008C0B24FF4F05100F0A8
:1010E000C3B900002DE9F34F8BB04FF0000801F1B8
:1010F0000C000C464FF0010B46460DF1080A01901A
:101100006269012101989047051E2DD0252D2CD014
:10111000216A8847C0B16269012101989047216A1C
:1011200088470028F7D1411E62690198904700E086
:10113000761CA1690B988847216A88470028F7D157
:10114000E1690B988847DBE7A1690B988847074658
:10115000A84201D1761CD3E7E1690B9888477F1C30
:1011600002D1B8F1000F6FD046E1002762693D4619
:101170003946019890472A2804D1626901210198D3
:1011800090470125DFF88492626901210198904718
:10119000A0F130010A290AD24F45E5DC07EB8701AF
:1011A00000EB4107303FDFD445F01005ECE7E906DE
:1011B00001D46FF000476C280AD04C2814D068285E
:1011C00015D06A280DD074281CD07A281AD01DE0BA
:1011D00062690121019890476C2802D045F004050E
:1011E00014E045F002050DE045F020050AE06269D3
:1011F000012101989047682802D045F0080505E0D4
:1012000045F400656269012101989047C4E90157DE
:1012100065283DD019DC58287AD00CDC452837D019
:1012200004DC252826D0412831D131E046282FD0B2
:1012300047282CD12CE05B2877D0612828D0632860
:101240007CD0642823D15AE0D0E06F2848D008DC55
:1012500066281DD067281BD0692821D06E2816D19A
:1012600027E0702845D0732868D0752847D07828A3
:101270000DD14DE0A1690B988847054625283FF41C
:1012800069AFE1690B9888476D1C3FF46AAFB3E022
:1012900023466A466FF001000B99FFF739F99EE08B
:1012A00045F040006060A80723464FF0000236D4A6
:1012B0003EE0E8077FF447AF2068011D2160006829
:1012C000290501D506701BE7290701D5068017E718
:1012D000A90703D5F117C0E9006111E706600FE720
:1012E00045F040006060A80723464FF0080216D47E
:1012F0001EE040F60E0125EA0100606016E045F0B0
:1013000040006060A80723464FF00A0207D40FE0B0
:1013100045F040006060A80708D5234610226FF012
:1013200001000B99AFF3008059E007E0234610223B
:101330006FF001000B99FEF7B1FF50E04FF000098C
:101340004F464B46632802D05B2806D040E0E806B3
:1013500001D40120A06001273AE0626901210198CF
:1013600090475E2805D14FF001096269494601980E
:101370009047216939B900210A46534643F8212094
:10138000491C0829FADBB0B3216969B9C11700EB20
:10139000D16253110AEB830122F01F02821A01204D
:1013A0000B68904003430B606269012101989047EC
:1013B0005D28E8D1B9F1000F09D00020514651F85D
:1013C0002020D24341F82020401C0828F7DB02AB44
:1013D000224600976FF001000B99AFF300800028C0
:1013E0000CDA401C08D1BBF1000F05D04FF0FF30E4
:1013F0000DB0BDE8F08FFFE74046F9E7E90701D1FE
:1014000008F1010806444FF0000B79E6CCCCCC0C77
:101410000EB540F2334102910021CDE900110A4698
:101420000B46FFF743FD03B000BD70B5C1F30A5290
:1014300001F000450024C1F3130140F2FF3341F4F1
:1014400080119A4201DA002070BD40F233439A4283
:10145000A2F2334203DC5242FEF7E1FE00E090408C
:101460002C43F1D0404270BD7F2801D9002208E012
:10147000064A02EB5002C007127800D1120902F0AE
:101480000F0201209040084070470000488100088A
:10149000FEE70000014800F0DFB800007C030020F8
:1014A000014800F0D9B800003803002030B590F8AA
:1014B00040500124AC40C56B6C60046863604368B5
:1014C000102B036803D099600068C26030BD9A6039
:1014D0000068C16030BD704710B540F6C41000F020
:1014E000CFF905221CA11E4801F0B2FC192000F022
:1014F000C7F909221BA11A4801F0AAFC192000F023
:10150000BFF90E2219A1164801F0A2FC192000F023
:10151000B7F90F2219A1124801F09AFC192000F026
:10152000AFF90E2219A10E4801F092FC192000F02B
:10153000A7F9142219A10A4801F08AFC192000F029
:101540009FF90F221AA1064801F082FCBDE8104065
:10155000192000F095B9000041540D0A0000000068
:10156000F8020020415445300D0A000041542B433D
:10157000574D4F44453D320D0A00000041542B4366
:1015800049504D4F44453D300D0A000041542B4316
:1015900049504D55583D310D0A00000041542B4330
:1015A00049505345525645523D312C38380D0A00AA
:1015B00041542B43495053544F3D35300D0A0000E0
:1015C00010B590F821100024022903D00421816372
:1015D00001243DE001680A6822F00E020A600168F9
:1015E0000A6822F001020A601A4A0168914201D198
:1015F000012121E0174A1432914201D110211BE050
:10160000144A2832914201D1891515E0114A3C3221
:10161000914201D189140FE00E4A5032914202D119
:101620004FF4803108E00B4A6432914202D14FF40A
:10163000801101E04FF08071064A083A51600121A3
:1016400080F82110002180F82010416B01B18847FB
:10165000204610BD080002402DE9F05FC16B0C6808
:1016600001680B68D0F840C0042202FA0CF2494D20
:10167000DFF824A1494E4A4FDFF828B1DFF828E10E
:1016800022422CD05A072AD50A68920603D40A6847
:1016900022F004020A600168A94201D1042219E083
:1016A000514501D1402215E0B14202D14FF4806290
:1016B00010E0B94202D14FF480420BE0594502D10B
:1016C0004FF4802206E0714502D14FF4800201E020
:1016D0004FF080622F4908394A60C16A3BE04FF001
:1016E000020808FA0CF818EA040F4FF000094FF04E
:1016F000010235D05FEA837832D50B689B0605D4AA
:101700000B6823F00A030B6080F821200168A942CE
:1017100001D1022219E0514501D1202215E0B14248
:1017200002D14FF4007210E0B94202D14FF40052DE
:101730000BE0594502D14FF4003206E0714502D169
:101740004FF4001201E04FF00072124908394A606C
:1017500080F82090816A00291AD0BDE8F05F084720
:10176000082505FA0CF5254212D01B0710D50B6889
:1017700023F00E030B6090F84010C36B02FA01F1E6
:101780005960826380F8212080F82090016BE2E7A5
:10179000BDE8F09F080002401C00024030000240FB
:1017A00044000240580002406C00024030B548B38B
:1017B00008C8154914221944B1FBF2F18900C1632C
:1017C00012498163022141771A6843F6F0718A4316
:1017D000D0E900142143D0E902452C432143046998
:1017E0002143446921438469214311431960002145
:1017F00041628162C16201634163012242770177E4
:10180000084630BD012030BDF8FFFDBF000002409A
:1018100070B5044690F82000002501280CD0012066
:1018200084F8200094F821600020012E06D084F86E
:1018300020000225284670BD022070BD022684F8D3
:101840002160A0632068066826F001060660204635
:10185000FFF72CFEE06A00282068016802D041F002
:101860000E0106E021F0040101602068016841F0EA
:101870000A0101602068016841F001010160D9E7B7
:1018800070B5044600F0F6F80546601C02D0044826
:101890000078044400F0EEF8401BA042FAD370BD7B
:1018A000480000202DE9F84FDFF890A100220AF14E
:1018B000040B144601274FF00F090BF1040E00BF73
:1018C0000B6807FA04F52B40AB4274D1DFF870C106
:1018D0004E68A6EB0C0866452BD00DDC032E34D0E9
:1018E00005DC36B3012E19D0022E2FD11BE0112EAC
:1018F00016D0122E2AD119E0B8F5881F19D006DCAF
:10190000B8F5803F15D0B8F5801F1FD111E0B8F5AC
:10191000001F0ED0B8F5041F18D10AE0CA6815E000
:10192000CA68121D12E0CA6808320FE0CA680C3299
:101930000CE08A682AB1012A4FF0080203D0456101
:1019400004E0042202E0056100E00022FF2B01D840
:10195000064601E000F104064FEA840501D9A5F12D
:101960002005D6F800C009FA05F82CEA080C02FA9E
:1019700005F54CEA050CC6F800C04D68ED0057D5DA
:10198000304DAE6946F00106AE61AD6924F0030644
:1019900005F0010500952C4D06EB050CDCF8085010
:1019A000A6074FEA167809FA08F6B543274EB04263
:1019B00002D1002610E03BE0254EB04201D10126C5
:1019C0000AE0244EB04201D1022605E0224EB04288
:1019D00001D1032600E0042606FA08F62E43CCF8CF
:1019E00008604D68DAF80060ED03554601D51E43E6
:1019F00000E09E432E604D68DBF80060AD035D465D
:101A000001D51E4300E09E432E604D68DEF8006065
:101A1000ED02754601D51E4300E09E432E604D68E1
:101A2000AD020E4D2E6801D51E4300E09E432E6090
:101A3000641C102CFFF444AFBDE8F88F0004014093
:101A40000000111000100240000001400008014099
:101A5000000C014000100140001401400C04014042
:101A6000C2684A40C26070470AB101617047090408
:101A7000FBE7000001488068704700004800002034
:101A800070B504001BD094F83D00002520B984F8FF
:101A90003C50204600F0E6FB242084F83D002068FE
:101AA000016821F00101016000F06EFD404A6168AB
:101AB000914201D83F4900E03F49884201D20120CC
:101AC00070BD3E492368B0FBF1F1596063689342F1
:101AD00006D94FF4967359434FF47A73B1FBF3F17F
:101AE0002368491C19626168914210D84900401E60
:101AF000B0FBF1F2521CC2F30B02042A01D2042003
:101B000022E0B0FBF1F0401CC0F30B001CE0A36826
:101B1000CBB301EBC10202EB0116421EB2FBF6F29F
:101B2000521C42F48042120536D06BB301EBC10265
:101B300002EB0111401EB0FBF1F0401CC0F30B00A2
:101B400040F4804040F400402168C861D4E90701B6
:101B5000084321680860D4E90310084321688860BD
:101B6000D4E9050108432168C8602068016841F094
:101B7000010101602564202084F83D00256384F87C
:101B80003E50002070BD00E008E001EB4106421E1F
:101B9000B2FBF6F2521CC6E70120D5E701EB41018A
:101BA000401EB0FBF1F0401CC0F30B00CAE7000080
:101BB000A086010080841E0000093D0040420F0005
:101BC0002DE9F84F1F4690468A460446DDF82890D6
:101BD000FFF750FF054694F83D0020287ED11923D9
:101BE000012278492046009501F031FB0028F5D10B
:101BF00094F83C00012871D0012084F83C00206852
:101C00000168C90703D1016841F001010160206842
:101C1000016821F400610160222084F83D00102059
:101C200084F83E0000262664C4F824806785664850
:101C3000E062608D20852B464A465146204601F0E1
:101C40005EF928B1206C84F83C60042850D073E021
:101C5000208D5E4F68B1012814D0022820680168E9
:101C60001ED041F480610160206841698069009064
:101C70009AE02068416981690091016841F400712E
:101C8000016091E02068016821F48061016072B612
:101C90002068416981690091016841F400710AE09E
:101CA00041F40061016072B6206841698169009168
:101CB000016821F48061016062B675E0032850D8A4
:101CC00001280CD002284B464FF00002394620462E
:101CD000009512D001F0BBFA70BB13E070E02A4609
:101CE0004946204601F028FB28B1206C202823D04B
:101CF0000120BDE8F88F20684BE001F0A8FAD8B9C0
:101D000072B61BE02068016821F48061016072B640
:101D100020680169606A421C62620170208D401E69
:101D20002085608D401E60854B4600223946204646
:101D3000009501F08CFA08B10320DAE72068016809
:101D400041F40071016020680169606A421C6262AE
:101D50000170208D401E2085608D401E608562B61A
:101D6000C9E72A464946204601F0E6FA0028BCD1D8
:101D700020680169606A421C62620170208D401E09
:101D80002085608D401E608520684169C9434907F0
:101D90000AD40169606A421C62620170208D401E93
:101DA0002085608D401E6085208D002886D12020F2
:101DB00084F83D0084F83E6084F83C60002098E799
:101DC000022096E7020010000000FFFF040001005F
:101DD0002DE9F84F1F4690468A460446DDF82890C4
:101DE000FFF748FE064694F83D0020287ED11923CF
:101DF000012243492046009601F029FA00287DD1AE
:101E000094F83C00012879D0012084F83C00206837
:101E10000168C90703D1016841F001010160206830
:101E2000016821F400610160212084F83D00102048
:101E300084F83E0000252564C4F824806785314875
:101E4000E062608D208533464A465146204601F0C7
:101E5000C5F828B1206C84F83C5004284CD00DE023
:101E6000206841698069009030E03246494620464A
:101E700001F093FA28B1206C042838D00320BDE883
:101E8000F88F606A411C6162216800780861608D8A
:101E9000401E6085208D401E80B2208521684A69E1
:101EA000D24352070BD450B1606A421C6262007880
:101EB0000861608D401E6085208D401E2085324661
:101EC0004946204601F09CF90028D4D1208D0028F5
:101ED000CBD154F83D0B016841F400710160202022
:101EE00004F81E09E57765770020C8E706E020685A
:101EF000016841F4007101600120C0E70220BEE7E3
:101F0000020010000000FFFF2DE9FF4F83B09A464A
:101F1000DDE9118793460446DDF84090FFF7AAFDFE
:101F2000054694F83D00202872D1192301227B49EF
:101F30002046009501F08BF90028F5D194F83C007B
:101F4000012865D0012084F83C0020680168C90799
:101F500003D1016841F0010101602068016821F4AA
:101F600000610160222084F83D00402084F83E009A
:101F700000262664C4F82490A4F82A806848E06209
:101F8000608D2085CDE9007553465A462046049958
:101F900001F06EF828B1206C84F83C60042851D020
:101FA00075E0208DDFF87C8168B1012814D002280B
:101FB000206801681ED041F4806101602068416999
:101FC000806900909BE02068416981690091016807
:101FD00041F40071016092E02068016821F48061A1
:101FE000016072B62068416981690091016841F41D
:101FF00000710AE041F40061016072B62068416935
:1020000081690091016821F48061016062B676E027
:1020100081E0032850D801280BD002283B464FF01E
:10202000000241462046009512D001F010F970BB25
:1020300013E02A463946204601F07EF930B1206C83
:10204000202824D0012007B0BDE8F08F20684BE0A5
:1020500001F0FDF8D8B972B61BE02068016821F4E0
:102060008061016072B620680169606A421C626228
:102070000170208D401E2085608D401E60853B468E
:10208000002241462046009501F0E1F808B1032006
:10209000D9E72068016841F4007101602068016996
:1020A000606A421C62620170208D401E2085608D36
:1020B000401E608562B6C9E72A463946204601F0CF
:1020C0003BF90028BBD120680169606A421C62624A
:1020D0000170208D401E2085608D401E6085206827
:1020E0004169C94349070AD40169606A421C6262B6
:1020F0000170208D401E2085608D401E6085208DE2
:10210000002886D1202084F83D0084F83E6084F8C1
:102110003C60002097E7022095E7000002001000D5
:102120000000FFFF040001002DE9FF4F83B09A4635
:10213000DDE9118793460446DDF84090FFF79AFCED
:10214000064694F83D0020287DD1192301224349F9
:102150002046009601F07BF800287CD194F83C00E2
:10216000012878D0012084F83C0020680168C90764
:1021700003D1016841F0010101602068016821F488
:1021800000610160212084F83D00402084F83E0079
:1021900000252564C4F82490A4F82A803048E06221
:1021A000608D2085CDE9007653465A462046049935
:1021B00000F0D6FF80B3206C84F83C50042848D04F
:1021C00008E032463946204601F0E7F830B1206C8D
:1021D000042839D0032007B0BDE8F08F606A411CA5
:1021E0006162216800780861208D401E80B22085E0
:1021F000618D491E618521684A69D24352070BD41B
:1022000068B1606A421C626200780861208D401EDD
:102210002085608D401E6085208D0028D1D13246FA
:102220003946204600F0ECFF0028D0D154F83D0B91
:10223000016841F400710160202004F81E09E5776F
:1022400065770020C7E706E02068016841F4007167
:1022500001600120BFE70220BDE70000020010007E
:102260000000FFFF00B500680C4985B0884212D11C
:10227000C020009012200190032003906946084876
:10228000FFF710FB0748C16941F40011C161C06943
:1022900000F40010049005B000BD000000540040A0
:1022A000000C01400010024002488168027811448D
:1022B0008160704748000020074810B5016841F070
:1022C00010010160032000F09DF80F2000F006F8D7
:1022D00000F024F8002010BD0020024070B50D4D24
:1022E00004464FF47A712878B1FBF0F00A49096886
:1022F000B1FBF0F000F02CFB48B9102C07D2002203
:102300002146501E00F05EF800206C6070BD012078
:1023100070BD00004800002054000020214808B58E
:10232000816941F001018161816901F00101009140
:10233000C16941F08051C161C06900F080500090D6
:10234000032000F05FF8002211466FF00B0000F050
:1023500039F8002211466FF00A0000F033F800222D
:1023600011466FF0090000F02DF800221146501FB1
:1023700000F028F800221146101F00F023F8002278
:102380000F21901E00F01EF800220F21501E00F0B9
:1023900019F80548416821F0E06141F000714160A1
:1023A00008BD0000001002400000014000F01F02C4
:1023B000012191404009800000F1E020C0F80011A7
:1023C00070470000F0B40E4B1B680C46C3F30223A9
:1023D000C3F10705042D00D90425191D072901D2D1
:1023E000002300E0DB1E012606FA05F1491E21400C
:1023F00099409E40761E16403143F0BC01F0BAB9B8
:102400000CED00E0064900F0070208684FF6FF03F4
:10241000184040EA0220034A104308607047000059
:102420000CED00E00000FA052DE9F047DFF83C81F3
:1024300005460E46D8F8000000F00700B0420CD266
:10244000D8F8001021F007013143C8F80010D8F87F
:10245000000000F00700B04263D12878444C8007A8
:1024600005D56068A96820F0F0000843606028780E
:10247000C00745D06868012816D02168022816D008
:10248000890700294DDA616821F003010143616089
:10249000FFF7F0FA6968074641F2883001290FD04A
:1024A0000229814619D027E021688903E9E78901DB
:1024B000E7E700BFFFF7DEFAC11B494501D918E085
:1024C00081466068C0F381000128F3D118E000BFA5
:1024D000FFF7D0FAC11B49450BD86068C0F38100F3
:1024E0000228F5D10CE000BFFFF7C4FAC11B494533
:1024F00002D90320BDE8F087606810F00C0FF3D11B
:10250000D8F80010404601F00701B1420BD901682C
:1025100021F0070131430160006800F00700B0427C
:1025200001D00120E6E72878400705D56068E96812
:1025300020F4E060084360602878000706D56068F2
:10254000296920F4605040EAC100606000F03CF866
:102550006168084AC1F30311515CC840064908602C
:102560000F20FFF7BBFE0020C4E700000020024060
:1025700000100240E87E0008540000200148006876
:10258000704700005400002004480549006849686D
:10259000044AC1F30221515CC84070475400002036
:1025A00000100240F87E00080448054900684968A8
:1025B000044AC1F3C221515CC84070475400002056
:1025C00000100240F87E000812A185B00FC98DE806
:1025D0000F0014A0144A006804905168134801F0D9
:1025E0000C03042B10D0082B0ED1C1F38343C90375
:1025F0001DF803000AD5516804AAC1F34041515C9B
:102600000A4A5043B0FBF1F005B07047084948430F
:10261000FAE7000002030405060708090A0B0C0D7F
:102620000E0F1010010200000010024000127A008C
:1026300000093D002DE9F84F04460078B94DC00768
:1026400048D06868C0F38100012807D06868C0F3EB
:102650008100022809D16868C00306D52868800374
:1026600038D5606800286FD034E06068B0F5803FEE
:102670000BD010B1B0F5A02F11D0286820F4803015
:102680002860286820F4802002E0286840F4803028
:102690002860606888B1FFF7EDF9064609E0286810
:1026A00040F480202860F0E7FFF7E4F9801B6428FD
:1026B00075D828688003F7D50CE0FFF7DBF90646EC
:1026C00005E000BFFFF7D6F9801B6428F0D8286822
:1026D0008003F7D42078944E80074FF001094FF023
:1026E00000083BD5686810F00C0F07D06868C0F38D
:1026F0008100022809D16868C00306D428688007D1
:1027000014D5206901281FD110E02069B0B1C6F8A6
:102710000090FFF7AFF9074605E000BFFFF7AAF901
:10272000C01B0228C4D828688007F7D528686169CB
:1027300020F0F80040EAC10028600FE0C6F80080F1
:10274000FFF798F9074606E0E9E000BFFFF792F9C6
:10275000C01B022823D828688007F7D420780007F8
:102760002CD57248A169D9B1C0F80090FFF782F961
:10277000074604E0FFF77EF9C01B02280FD8686AFD
:102780008007F7D56A484FF4FA510068B0FBF1F0C2
:10279000009000BF0098411E0091FAD20EE080E048
:1027A000C0F80080FFF766F9074604E0FFF762F91A
:1027B000C01B022875D8686A8007F7D420784007C4
:1027C00060D5E8690027C00008D4E86940F080506F
:1027D000E861E869012700F08050009055480168E1
:1027E000C90513D40168834641F480710160FFF785
:1027F00041F9824606E000BFFFF73CF9A0EB0A0072
:1028000064284ED8DBF80000C005F5D5E068012843
:102810000AD008B1052813D0286A20F001002862E8
:10282000286A20F0040002E0286A40F001002862D3
:10283000E06841F2883B98B1FFF71CF982460BE053
:10284000286A40F004002862EEE700BFFFF712F9A3
:10285000A0EB0A0159455AD8286A8007F6D50CE042
:10286000FFF708F9824605E0FFF704F9A0EB0A013B
:1028700059454CD8286A8007F6D41FB1E86920F082
:102880008050E861E06988B36968C1F38101022979
:1028900045D00228C6F8608004D0FFF7EBF8044664
:1028A00038E034E0FFF7E6F8074604E0FFF7E2F827
:1028B000C01B02282BD828688001F7D4206AB0F505
:1028C000803F05D16868A16820F400300843686043
:1028D000D4E908010843696821F474110843686069
:1028E000C6F86090FFF7C6F8044606E015E000BFA2
:1028F000FFF7C0F8001B022809D828688001F7D527
:102900000BE000BFFFF7B6F8001B022802D9032036
:10291000BDE8F88F28688001F4D40020F8E7012092
:10292000F6E70000001002400000424280044242EC
:1029300054000020007000404FF0E0210428086996
:1029400003D020F004000861704740F00400FAE76B
:1029500010B5401EB0F1807F01D3012010BD4FF0B3
:10296000E02460610F21601700F004FF0020A061E7
:1029700007202061002010BD30B590F83C20012ACE
:1029800020D0012280F83C20022380F83D300368EB
:102990005C6824F070045C6003685C680D682C431C
:1029A0005C6003689C6824F080049C6003689C68F9
:1029B00049680C439C6080F83D20002180F83C1061
:1029C000084630BD022030BD1FB50068B0F1804F11
:1029D00008D10F2000900220019003906946024820
:1029E000FEF760FF1FBD00000008014070B50446FF
:1029F00090F83C000D4601280DD0012684F83C607B
:102A0000022084F83D0042B1042A18D0082A2AD0B6
:102A10000C2A4DD139E0022070BD206800F054FF2F
:102A20002068816941F0080181612068816921F095
:102A300004018161206881692A69114311E02068DD
:102A400000F06AFF2068816941F4006181612068BB
:102A5000816921F480618161206881692A6941EA84
:102A60000221816124E0206800F082FF2068C169B2
:102A700041F00801C1612068C16921F00401C16110
:102A80002068C1692A69114311E0206800F09CFFA9
:102A90002068C16941F40061C1612068C16921F405
:102AA0008061C1612068C1692A6941EA0221C1616E
:102AB00084F83D60002084F83C0070BD10B504002F
:102AC00003D094F83D0010B107E0012010BD0020B4
:102AD00084F83C00204600F00DF8022084F83D0008
:102AE000211D206800F0AEFE012084F83D0000208A
:102AF00010BD000008B50068B0F1804F08D105484E
:102B0000C16941F00101C161C06900F0010000909C
:102B100008BD00000010024010B504460068012204
:102B200000F0C6FE07492068884203D1416C41F499
:102B3000004141642068016841F00101016000200A
:102B400010BD0000002C01400449884204D1192224
:102B50000349024800F02EB970470000F802002037
:102B60001801002070B5026804461068D1685369E6
:102B700010F00F0F50D003F0010501F490763543AB
:102B80005DD0C20705D0CA0503D5E26B42F0010251
:102B9000E263420705D5DA0703D0E26B42F0020296
:102BA000E263820705D5DA0703D0E26B42F0040244
:102BB000E263020705D5DA0703D0E26B42F00802B0
:102BC000E263E26B002A33D0800604D5880602D582
:102BD000204601F078FA20684069E16BC0F380106C
:102BE000090700D428B3204601F056FA206841694D
:102BF00049061AD5416921F040014161606BA0B1DD
:102C00001B494163606BFEF7DBFC002810D0606B52
:102C1000416BBDE870400847830610D58B060ED582
:102C20002046BDE8704001F04EBA2046FFF78CFF09
:102C300070BD2046FFF788FF0020E06370BD0306EB
:102C400006D50B0604D52046BDE8704001F03EBB1A
:102C50004006F3D54806F1D5D168204621F0400161
:102C6000D160202184F8391000F032F970BD0000E5
:102C7000C13F000870B5040004D094F83900002565
:102C800010B106E0012070BD84F83850204600F0F5
:102C900023F8242084F839002068C16821F4005109
:102CA000C160204601F05AFA2068016921F4904180
:102CB00001612068416921F02A0141612068C168F1
:102CC00041F40051C160E563202084F8390084F8A4
:102CD0003A00002070BD0000F0B5064600682C499F
:102CE00085B0884252D12B48816941F4804181618D
:102CF0008069294D00F4804004904FF400700090EA
:102D0000022001900320039069462846FEF7CAFD81
:102D100000242815CDE90004694628460294FEF7F0
:102D2000C1FD1F4D1D488027C5E90004C5E90247C4
:102D300020202C61C5E905402846EC61FEF736FDF0
:102D400018B17A2117A001F038FB75636E62144D3B
:102D500012484435143801C5102091C5104845F873
:102D6000104944306C61AC61EC61FEF71FFD18B195
:102D70008A210CA001F021FB3563002205212520CA
:102D80006E62FFF71FFB2520FFF710FB05B0F0BDBB
:102D90000038014000100240000801405800024085
:102DA000380300202E2E2F5372632F7573617274B7
:102DB0002E630000F8B5044690F83A0020283CD174
:102DC000C1B3BAB394F83800012836D0012084F892
:102DD0003800A162A2850025E563222084F83A002C
:102DE000636B17489862636B1648D862636B16482A
:102DF0001863606B134645630846666B216802469C
:102E00003046091DFEF704FD206801684168009105
:102E100084F83850C16841F48071C160206841690C
:102E200041F0010141612068416941F04001416187
:102E30000020F8BDFFE70120FBE70220F9E70000D2
:102E40001B40000857400008D13F000870477047FA
:102E500070B5044690F83900202830D169B362B3C8
:102E600094F8380001282AD0012084F83800216223
:102E7000A284E2840025E563212084F83900236BD5
:102E800010489862236B1048D862236B0F48186370
:102E9000206B134645632668206B321DFEF7B8FC95
:102EA00021686FF04000086084F83850206841695C
:102EB00041F080014161002070BD012070BD022001
:102EC00070BD0000614000088F400008D13F00083D
:102ED00070477047FEE701684A69D24352050CD437
:102EE0006FF480624A6104210164002140F8301FC0
:102EF00020224273017301207047002070472DE9A2
:102F0000F84F0446C06A1E4692460D4621680A687C
:102F100042F480620A60042807D0012805D010F529
:102F2000803F02D0206B112804D12068016841F451
:102F3000807101604FF0011853460022414620463F
:102F4000009600F084F9B8BB206908F10109B0F5DA
:102F5000804F12D00620216800EAD51747F0F00014
:102F600008613346524608F10701204600F0A0F9F7
:102F700038B1206C04282FD01EE0E8B240F00100E8
:102F80001FE02168E8B208613346524649462046B0
:102F900000F08EF90028ECD1206841698169009128
:102FA000016841F480710160534600224146204689
:102FB000009600F04CF910B10320BDE8F88F47F0FF
:102FC000F10021680861334652464946204600F028
:102FD0006FF90028CDD1F0E70120EEE7F8B50446FF
:102FE000C06A1E460D461746042807D0012805D0A2
:102FF00010F5803F02D0206B122804D120680168B0
:1030000041F480710160134600224FF00111204607
:10301000009600F01CF9A0B92069B0F5804F12D0DD
:103020000620216800EAD51040F0F0000861334620
:103030003A460E49204600F03BF938B1206C04288E
:1030400011D00320F8BD05F0FE0000E0E8B22168D1
:103050000861064933463A46891F204600F028F9A0
:103060000028EBD1F8BD0120F8BD000008000100E8
:103070002DE9F84F0446006889460B9D0168984683
:10308000174641F4806101602068016841F4807155
:10309000016000954FF0011A0022514620460A9B1C
:1030A00000F0D5F8F0BB216809F0FE0008610AF1D4
:1030B000010B2B46594620460A9A00F0F9F818B140
:1030C000206C042812D03AE02068416980690090A1
:1030D0002A4620460A9900F060F950B1206C042875
:1030E0002DD12068016841F4007101600120BDE824
:1030F000F88FFEB2B8F1010F09D02168380A0861D3
:103100002A4620460A9900F048F90028E6D12068AE
:1031100006612A4620460A9900F03FF90028DDD1D1
:10312000206800E00BE0016841F4807101600095C7
:103130000022514620460A9B00F089F808B103207E
:10314000D5E7216809F0FF0040F0010008612B4637
:10315000594620460A9A00F0ABF80028B0D1C6E7DD
:103160002DE9F843044600680D46DDE9089701683B
:103170009846164641F4807101604B4600224FF09C
:1031800001112046009700F062F8E8B9216805F0C7
:10319000FE0008613B464A461849204600F088F880
:1031A00028B1206C04280FD10120BDE8F8832068E5
:1031B0004169806900903A464946204600F0EDF8A2
:1031C00020B1206C042813D00320EEE7F5B2B8F14B
:1031D000010F09D02168300A08613A464946204665
:1031E00000F0DBF80028ECD1206805610020DCE766
:1031F0002068016841F400710160D5E70200010018
:1032000070B516460D4604461AE02046FFF763FEE9
:1032100008B1012070BD681C12D025B1FEF72AFC50
:10322000801BA8420CD954F8400F40F0200044F80D
:10323000100900202060202161732073032070BDDD
:1032400020684069C0434007DFD4002070BD2DE9ED
:10325000F0471E4690460D460446C1F30747DDF889
:10326000209012E0701C10D02EB1FEF703FCA0EBF2
:103270000900B04209D9002044F8300F20216173C1
:10328000A07320730320BDE8F0872068012F0AD0C7
:10329000806925EA00000004000C06D000214145A9
:1032A000E0D00020EFE74069F3E70121F7E70000F5
:1032B0002DE9F0479A4691460D46044600264FF008
:1032C0002008C1F307472AE020684069C043400551
:1032D00012D42068016841F40071016021686FF424
:1032E0008060486104202064266384F83D8084F86F
:1032F0003C600120BDE8F087B9F1FF3F0FD0B9F184
:10330000000F05D0FEF7B6FBA0EB0A01494506D930
:1033100044F8306F84F80D8026730320EAE72068B4
:10332000012F07D0D0F8180025EA00000004000C97
:10333000E0D0C9E74069F7E72DE9F0410025904664
:103340000E460446202721E04069C043C0060CD445
:1033500021686FF0100048612564256384F83D7092
:1033600084F83C500120BDE8F0812EB1FEF782FBCD
:10337000A0EB0800B04209D954F8400F40F02000FB
:1033800044F80409677025700320ECE72068416960
:10339000C9434906D8D40020E5E770B516460D4666
:1033A00004461AE02046FFF796FD08B1012070BDE3
:1033B000681C12D025B1FEF75DFB801BA8420CD91A
:1033C00054F8400F40F0200044F81009002020601D
:1033D000202161732073032070BD20684069C043C1
:1033E0000006DFD4002070BD0D4808B5416941F0EA
:1033F000010141614069002200F0010000900521B7
:103400000E20FEF7DFFF0E20FEF7D0FF0022052181
:103410000F20FEF7D7FFBDE808400F20FEF7C6BF1C
:103420000010024010B594B000214048FFF774FB33
:1034300004213E48FFF770FB08213C48FFF76CFB76
:103440000C213A48FFF768FB39480068C16841F031
:103450001001C160192237493548FFF7ABFC3549E7
:1034600077201A390883084602F04CF93149762052
:1034700034390883084602F045F97521D02003F05D
:1034800089FD712800D0FEE72A485C3802F0C4F9B3
:103490000120FEF7F5F927485C3802F027FD1422D9
:1034A00025496846FCF7CBFE0021684602F0CCFDBA
:1034B000224C214914226063143105A8FCF7BFFE99
:1034C000002105A802F0C0FD1B49A0631422283189
:1034D0000AA8FCF7B4FE00210AA802F0B5FD1649BF
:1034E000E06314223C310FA8FCF7A9FE00210FA8CD
:1034F00002F0AAFD206400221C21012004F022F920
:10350000A06200220421012004F01CF9E0620022E4
:103510000421012004F016F9606200221921012023
:1035200004F010F9206314B010BD0000B8020020B0
:10353000F802002018010020987E000800000020FA
:1035400030B52E4885B0816941F0100181618169F3
:1035500001F010010491816941F0200181618169CC
:1035600001F020010491816941F0040181618169C8
:1035700001F004010491816941F0080181618069D1
:103580001F4D00F008004FF4005404900022214623
:103590002846FEF769FA0120CDE90040002002909C
:1035A0000220039069462846FEF77CF94FF440401C
:1035B0000324CDE9000469462846FEF773F9009418
:1035C000694610480194FEF76DF949F6F010CDE90F
:1035D000000469460C48FEF765F94FF63F70CDE9E7
:1035E000000469460948FEF75DF90948416841F061
:1035F000E06141F40041416005B030BD001002407F
:10360000001001400014014000080140000C01407E
:10361000000001400E4810B50C4901600D494160A1
:1036200000214FF480428160C0E903124161816151
:10363000C1610162FEF724FA002805D0BDE8104000
:103640004C2105A000F0B9BE10BD000000540040A0
:1036500064020020801A06002E2E2F5372632F69F9
:1036600032632E630000000010B529488AB04FF085
:103670008041016007210024C0E9011444F61F6164
:10368000C0E903148461FFF719FA18B1492121A098
:1036900000F093FE079407A91D480894FFF76CF902
:1036A00018B150211BA000F088FE6020CDE9000475
:1036B00002940022694616480494FFF797F918B15E
:1036C000592114A000F079FE042269461048FFF742
:1036D0008DF918B15E210FA000F06FFE0822694637
:1036E0000B48FFF783F918B163210AA000F065FECB
:1036F0000C2269460648FFF779F918B1682105A040
:1037000000F05BFE0248FFF75FF90AB010BD000051
:10371000B80200202E2E2F5372632F74696D2E6312
:10372000000000000D4810B50B4901604FF4E13175
:103730004160002181600C22C160C0E904128161F6
:10374000C161FFF797FA002805D0BDE810404F216E
:1037500003A000F032BE10BD00380140F802002086
:103760002E2E2F5372632F75736172742E630000B7
:10377000FEE770470907090E002806DA00F00F007F
:1037800000F1E02080F8141D704700F1E02080F87F
:103790000014704710B5FEF787FDBDE8104002F039
:1037A00049BC10B590B00220009001200490102078
:1037B0000024059007946846FEF73CFF00B1FEE741
:1037C0000F20CDE90A040C940D9400210AA80E9450
:1037D000FEF72AFE00B1FEE7FEF7D0FE4FF47A7145
:1037E000B0FBF1F0FFF7B4F80420FFF7A5F80022D2
:1037F0000F21501EFEF7E6FD10B010BD0D48016808
:1038000041F00101016041680B4A114041600168CB
:103810000A4A11400160016821F480210160416879
:1038200021F4FE0141604FF41F0181600449C0038F
:1038300008607047001002400000FFF8FFFFF6FE2E
:1038400008ED00E0F0B50268164B174C174D4FF02D
:103850008047984205D0B84203D0A04201D0A84288
:1038600003D122F070064A683243984205D0B8422C
:1038700003D0A04201D0A84203D122F44074CA6808
:10388000224322F080044A69224302608A68C262AD
:103890000A688262984201D109690163012141618C
:1038A000F0BD0000002C0140000400400008004072
:1038B00010B50123046A8B409C430462036A8A406A
:1038C0001343036210BD000030B5026A22F001020A
:1038D0000262026A4368846924F073050C682C4311
:1038E00022F002058A682A430A4DA8420BD122F031
:1038F0000805CA6823F440732A434D6922F0040284
:103900001D438B692B4343608461496841630262B4
:1039100030BD0000002C014030B5026A22F01002D8
:103920000262026A436884690D6824F4E64444EA4A
:1039300005248D6822F0200242EA05120B4DA842B0
:103940000ED1CD6822F0800242EA05124D6923F4BF
:10395000406343EA85038D6922F0400243EA850310
:103960004360846149688163026230BD002C01407C
:1039700030B5026A22F480720262036A4268C46946
:1039800023F4007324F073050C682C438D6843EA1C
:1039900005230C4DA8420ED1CD6823F4006343EA01
:1039A00005234D6922F4405242EA05128D6923F441
:1039B000806342EA05124260C4614968C1630362E0
:1039C00030BD0000002C014030B5026A22F4805264
:1039D0000262046A4268C3690D6823F4E64343EA5D
:1039E00005238D6824F4005444EA0534064DA842AA
:1039F00004D14D6922F4804242EA85124260C361DB
:103A000049680164046230BD002C014094B0914CBF
:103A1000A06A03F053FC58B100231A460BA9A06A10
:103A200003F0B4FE607818B90D9820610120607031
:103A300000231A4612A9606A03F0A8FE1298A0603B
:103A40000B9860610D9FA76183490E98FCF77CFE7F
:103A500082492062FCF7D0FEFDF7F4F805460E46D9
:103A60003846FDF7EFF800227D4BFCF7E8FF2A46C9
:103A70003346FDF756F8FDF7F8F8E061384621695E
:103A8000FCF7ECFEFDF7DEF84FF04042754B02F01C
:103A9000F3FA0022744BFCF7CFFF0022734BFCF7C4
:103AA000CEFFFDF7E2F86060D4E90501FCF79EFE69
:103AB0000121FCF711FFE169FCF7D0FEFDF7C2F828
:103AC00003F0C4FBFDF7D1F8E060A668054616F0E8
:103AD000FF4F1BD13220664F8DF82B0039460F98CF
:103AE000FCF732FEFDF79AF88DF828003846109959
:103AF000FCF77CFEFDF792F88DF82A003946109805
:103B0000FCF722FEFDF78AF88DF829003146284699
:103B1000FDF7C8F812D29DF82900801C8DF8290005
:103B20009DF82A00801C8DF82A009DF82800801E30
:103B30008DF828009DF82B000A3016E0D4E9021019
:103B4000FDF7BAF813D29DF82900801E8DF82900E0
:103B50009DF82A00801E8DF82A009DF82800801C00
:103B60008DF828009DF82B000A388DF82B0011984D
:103B7000FDF768F880468B461098FDF763F80290D1
:103B80008A460F98FDF75EF807468946E068FDF71C
:103B900059F806460191A068FDF754F805460091D2
:103BA0006068FDF74FF8CDE9088B02460298CDF822
:103BB0001CA00497CDE905900B4601993548CDE945
:103BC00002610099CDE900512AA100F0F7FB82B211
:103BD000628031A1354800F0F1FB192233493448A5
:103BE000FFF736F96420FDF74BFE4FF480752A4647
:103BF00028492F48FFF72CF96420FDF741FE0023E8
:103C000064220AA9E06A03F0A7FEC8B929A12148E5
:103C100000F0D4FB82B262801FA1244800F0CEFBEA
:103C2000192222492248FFF713F96420FDF728FEE4
:103C30002A4618491E48FFF70BF96420FDF720FEBD
:103C400023494FF080500860BFF34F8FBFF36F8F51
:103C5000DEE60000000000200080884307080541E0
:103C600000003D40955BC83F0000F03F40A5E540A7
:103C70000000B442252E326620252E326620252EE5
:103C8000326620252E326620252E326620252E32E1
:103C9000660D0A004A01002041542B434950534508
:103CA0004E443D302C25640D0A0000004A020020DD
:103CB000F802002051756575652066726F6D20549D
:103CC00061736B43616C63204552524F520A00008E
:103CD00004ED00E088B0574E574CDFF860816D4628
:103CE0000DF10C0A0DF108094FF4807B4FF080575D
:103CF0002078F8B9FDF7F0FB0421642003F014FAF2
:103D00004FF4FA60FDF7BCFD0421002003F00CFA2B
:103D100041F27070FDF7B4FD01215A2003F004FA5E
:103D200002215A2003F000FA03215A2003F0FCF983
:103D3000012020703F486A465146283001F050FD6E
:103D4000D8B93C483EA18E3000F038FB82B2628088
:103D500046A14B4800F032FB192249494948FFF778
:103D600077F86420FDF78CFD32495A468E3145487C
:103D7000FFF76EF86420FDF783FD2E484A46291DA3
:103D8000423001F02DFDD8B92A483FA18E3000F015
:103D900015FB82B2628035A1394800F00FFB192271
:103DA00037493848FFF754F86420FDF769FD214989
:103DB0005A468E313348FFF74BF86420FDF760FD1B
:103DC0003A21D02003F0E6F8C00702D0194801F0EC
:103DD0003FFFF0690490706A0590306A06900023F6
:103DE00064226946A06A03F0B7FDD8B9114831A131
:103DF0008E3000F0E3FA82B262801CA1204800F00D
:103E0000DDFA19221E491F48FFF722F86420FDF74A
:103E100037FD08495A468E311A48FFF719F86420D1
:103E2000FDF72EFDC8F80070BFF34F8FBFF36F8F03
:103E30005EE70000BC0000200000002004ED00E070
:103E400054656D70657261747572652F70726573FB
:103E5000737572652072656164696E672066726F42
:103E60006D20424D503238305F300A0041542B43B0
:103E7000495053454E443D302C25640D0A00000046
:103E80004A020020F802002054656D70657261746A
:103E90007572652F707265737375726520726561D6
:103EA00064696E672066726F6D20424D5032383003
:103EB0005F310A0051756575652066726F6D20541B
:103EC00061736B44617461204552524F520A000085
:103ED00086B0DFF878A01E4C1E4D1F4F4FF40059DE
:103EE0000DF104084FF0805649465046FDF7B8FDE5
:103EF000286B03F0F5F918B3002301221449286B4D
:103F000003F044FC20782B281AD16078492817D177
:103F1000A078502814D1E078442811D104AB03AA2A
:103F20000EA10B48CDF80080FCF79CF9002807DDB6
:103F3000019802900023642202A9686A03F00CFD34
:103F40003E60BFF34F8FBFF36F8FCDE7001001408E
:103F5000310100200000002004ED00E02B49504416
:103F60002C25642C25643A256600000008B5124C07
:103F7000124E4FF0805500231A466946E06A03F05E
:103F800005FC9DF80000012103F0CEF89DF801002A
:103F9000022103F0C9F89DF80200032103F0C4F8E0
:103FA0009DF80300042103F0BFF83560BFF34F8F85
:103FB000BFF36F8FDFE700000000002004ED00E09A
:103FC00010B5406A0021C185C184FEF7BDFD10BD5A
:103FD00070B5446A2068406994F83910C0F3C01085
:103FE0000025212904D118B1E584204600F062F8AB
:103FF0002068406994F83A10C0F38010222904D157
:1040000018B1E585204600F047F8E06B40F010005D
:10401000E0632046FEF798FD70BD10B50146406A8A
:1040200009680968890613D40021C1850168CA6836
:1040300022F48072CA6001684A6922F001024A6172
:1040400001684A6922F040024A61202180F83A1052
:10405000FEF7FCFE10BD10B5406AFEF7F8FE10BD7D
:1040600010B50146406A0968096889060CD4002128
:10407000C18401684A6922F080024A610068C1680F
:1040800041F04001C16010BDFEF722FF10BD10B528
:10409000406AFEF71EFF10BD0168CA6822F49072E4
:1040A000CA6001684A6922F001024A61202180F851
:1040B0003A1070470168CA6822F0C002CA60202125
:1040C00080F83910704710B590F83A10222901D0C5
:1040D000022010BD8168B1F5805F11D0016900290F
:1040E00001681FD0496801F07F03816A4A1C82621F
:1040F0000B70C18D491E0904090CC18518D02BE035
:104100000269816A002A0268526805D0D2B20A8028
:10411000816A491C8162ECE7C2F308020A80816A65
:10412000891CF7E74A68816A4B1C83620A70E0E7E2
:104130000168CA6822F02002CA600168CA6822F4D5
:104140008072CA6001684A6922F001024A61202136
:1041500080F83A10FEF77AFE002010BD2DE9F041FC
:10416000044600680169E26821F44051114301618D
:104170002169A0680843616908432168CA6841F25F
:104180000C639A430243CA6020684169A26921F422
:104190004071114341614C492068642532268842B0
:1041A0003CD1FEF701FA00EBC00101EB00106168A1
:1041B0008900B0FBF1F7FEF7F7F900EBC00101EB66
:1041C00000106168B0468900B0FBF1F0B0FBF5F07B
:1041D0006FF01801484307EB800106EB0110B0FBBC
:1041E000F5F000F0F006FEF7DFF900EBC00101EB9F
:1041F000001061688900B0FBF1F0B0FBF5F006EB50
:104200000016FEF7D1F900EBC00101EB0010616868
:104210008900B0FBF1F7FEF7C7F93BE0FEF7B4F910
:1042200000EBC00101EB001061688900B0FBF1F701
:10423000FEF7AAF900EBC00101EB00106168B0467F
:104240008900B0FBF1F0B0FBF5F06FF018014843C6
:1042500007EB800106EB0110B0FBF5F000F0F00673
:10426000FEF792F900EBC00101EB001061688900D4
:10427000B0FBF1F0B0FBF5F006EB0016FEF784F9A9
:1042800000EBC00101EB001061688900B0FBF1F7A1
:10429000FEF77AF900EBC00101EB001061688900BC
:1042A000B0FBF1F0B0FBF5F06FF01801484307EBFD
:1042B000800108EB0110B0FBF5F0216800F00F0061
:1042C00030448860BDE8F0810038014090F8391032
:1042D000212901D0022070478168B1F5805F016A11
:1042E0000BD04A1C0262026809785160C18C491ED9
:1042F0000904090CC1840ED017E009880268C1F3D3
:104300000801516001690029016A02D0491C01625B
:10431000ECE7891CFBE70168CA6822F08002CA60EA
:104320000068C16841F04001C16000207047000092
:1043300070B51A480068C0062BD51848001D0068E3
:10434000174CA06D20F00100A065164D6566192080
:10435000E065A87800262B2811D113481349066080
:1043600000202A1892780A54401CC0B21928F8D3A9
:104370000F4800230C4A0D49006803F091FB002010
:104380002E54401CC0B21928FAD3A06D40F0010091
:10439000A065BDE870400748FEF7E4BB0038014067
:1043A00000000240180100204400002031010020DC
:1043B00030000020F8020020FEE7FEE70FB4084BB3
:1043C00010B504A902AA039800F030FC044602A923
:1043D000002000F0C2FF204610BC5DF814FB000076
:1043E0005B530008490050EAC12018BF04204A0D61
:1043F00018BF40F0010040F2FF72B2EB515F08BFFE
:1044000040F00200012808BF052070472DE9F74F52
:10441000144694B00021C4E902111599079121F0C6
:104420000045C9498D4206DC1599C4E9000117B061
:104430000020BDE8F08FC549DFF814A3A9423CDD98
:104440000799C44E0029C44FC44A1599534619DD33
:10445000FCF7EFFA554506D0C14AC24BFCF7E9FA22
:10446000C4E900010AE04FF0D352BE4BFCF7E1FA79
:1044700032463B46FCF7DDFAC4E9000117B00120E3
:10448000BDE8F08FFCF734FA554506D0B44AB54B79
:10449000FCF72EFAC4E900010AE04FF0D352B14B09
:1044A000FCF726FA32463B46FCF722FAC4E9000143
:1044B00017B04FF0FF30BDE8F08FAB49A942159916
:1044C00078DB21F0004183468846A84AA84BFCF7D8
:1044D000B6FA0022A74BFCF70BFAFCF7A6FF0990EF
:1044E000FCF79AFD06460F469C4A5346FCF7A7FA8E
:1044F00043465A46FCF7A0FA80468A46984A994BAA
:1045000030463946FCF79BFA2A0D01250B924246AC
:104510005346FCF791FA032DC4E9000139D00B98FA
:10452000C1F30A51401A05EB45111139814230DAC5
:104530009148C346784400EB0510CDF80CA00C90D0
:10454000D0E9002330463946FCF779FA02460B469B
:104550000491069058460399FCF76BFA80468A4608
:1045600002460B4658460399FCF763FA049B069AE9
:10457000FCF75FFA83460C9803913946D0E9022391
:104580003046FCF75CFA5A46039BFCF752FA6D1C66
:10459000BDE707980028A2BF099817B0BDE8F08FC3
:1045A000616881F000416160099817B04042BDE840
:1045B000F08FFFE784461598C1F31301C0F30A504A
:1045C000A0F2F5304FEA601800F01F06C6F1200097
:1045D000139000200690079041F4801E05206D4640
:1045E00076B1664A08EB00017A4452F8213002EBBA
:1045F0008101B3404A68139922FA01F1194305E099
:104600005F4908EB0002794451F82210A1FB0E2704
:10461000A1FB0C131A449A4234BF0123002303EB7D
:10462000070A05EB8003D3E901B70F448F4234BF7B
:104630000121002193448B4411B1934502D903E039
:10464000934501D2012100E00021C3E901B75144A3
:1046500045F82010011EA0F10100C1DC0298059F61
:1046600000F10050800F12900298DDE9035680009F
:10467000FCF7D2FC834628460D91FCF7C9FE6FF08B
:104680001D02FCF761FCCDE90E013046FCF7C0FECF
:104690006FF03D02FCF758FC80468A463846FCF72E
:1046A000B7FE6FF05D02FCF74FFC074642465346EB
:1046B0001191FCF71DF9DDE90E23FCF719F95A46B3
:1046C0000D9BFCF715F900250E465A4628460D9B12
:1046D000FCF7AFF9DDE90E23FCF7ABF94246534690
:1046E000FCF7A7F93A46119BFCF7A6F9DFF898A06A
:1046F000244A5346FCF7A3F907468846234A244B2D
:1047000031462846FCF79BF93A464346FCF7F0F859
:10471000074688464FF0A842534631462846FCF7E4
:104720008EF93A464346FCF7E3F8159A12F0004F2B
:1047300004D0129A81F0004152421292C4E9000161
:10474000129817B0BDE8F08FFB21E93F7CD90240F9
:10475000FB21F93F7370032E8A19A33B00004054DC
:104760003163621A61B4D03DFB21394183C8C96D00
:10477000305FE43F0000E03F203B00009C3A000037
:104780007E3A0000182D4454FB21F93D3326A61132
:10479000460B113C2DE9FF4D21F0004807460C4621
:1047A000B8F1795F08DAFCF740FE002801BF00206D
:1047B000324904B0BDE8F08D3A462346104619460A
:1047C000FCF73DF9054602462D480E460B460621EC
:1047D000784400F05DF82A463346FCF730F9DDE90D
:1047E000022382468B4638462146FCF728F90446C8
:1047F0000F4652465B4628463146FCF720F92246D2
:104800003B46FCF716F907468A464FF0FF3228462A
:104810003146FCF799FB1B4A90450ADA3A46534663
:10482000FCF707F904B00022BDE8F04D134BFCF78C
:1048300003B9154A4245A8BFA8F500154FF000047A
:10484000B8BF124D22462B46FCF7F3F806468846C1
:1048500022462B4600200949FCF7EBF804460D469A
:104860003A46534630464146FCF7E3F804B0224648
:104870002B46BDE8F04DFCF7DFB800000000F03F2C
:104880004C3800003333D33F0000E93F0000D23FF3
:104890002DE9F0414F1E00EBC7010446D1E90001AC
:1048A00015461E4637F006020DD02A463346FCF761
:1048B000C6F87F1E04EBC703D3E90023FCF718F802
:1048C00037F00602F1D1022F25D0042F13D0062F86
:1048D00018BFBDE8F0812A463346FCF7B0F8D4E9AA
:1048E0000A23FCF705F82A463346FCF7A8F8D4E972
:1048F0000823FBF7FDFF2A463346FCF7A0F8D4E96E
:104900000623FBF7F5FF2A463346FCF798F8D4E96F
:104910000423FBF7EDFF2A463346FCF790F8D4E971
:104920000223FBF7E5FF2A463346FCF788F8D4E973
:104930000023BDE8F041FBF7DBBF00002DE9FF4D90
:10494000054621F0004084B00C46B0F1795F0BDAE7
:104950002846FFF747FD042808BF00F07FF82846E7
:1049600008B02146BDE8F08D2A460B461046FCF7FC
:1049700066F806460F462A462346FCF760F880464E
:1049800026488A4632463B4605217844FFF780FF99
:1049900083461098029160B3214A224B404651460B
:1049A000FCF74DF8CDE900015A4640465146029BBE
:1049B000FCF745F882468846DDE906014FF0FF32F4
:1049C000FCF7C2FA52464346FCF733F832463B4600
:1049D000FCF735F8DDE90623FCF72BF8DDE90023C9
:1049E000FCF727F808B02A462346BDE8F04DFCF74F
:1049F00023B80B465A4630463946FCF720F8084A99
:104A0000084BFBF775FF42465346FCF718F808B011
:104A10002A462346BDE8F04DFBF76ABF92370000F7
:104A2000495555555555C5BF0022134610460149F5
:104A3000FCF777B80000F03F0122FCF785BAFBF7DE
:104A400057BF0022134610461146FCF76AB840F2E1
:104A5000013200204FF0E041FCF776BA024A002014
:104A60001107FCF771BA000001FDFFFF02E008C862
:104A7000121F08C1002AFAD170477047002001E0D8
:104A800001C1121F002AFBD17047000001490860D4
:104A900070470000B80000202DE9FF5F82B00021C0
:104AA000DDE90430020DDDF840B0034318D044F6D0
:104AB0001050A2F2FF3242431514119801281FD062
:104AC000A5EB0B00401C5FEA000A4FF000064E4FBA
:104AD000DFF83891B046504615D5CAF1000413E00E
:104AE000119801244AA3012801D16FEA0B01029811
:104AF000119AC0E90031C0E9024206B0BDE8F09F5A
:104B0000CBF10000DFE704460021404A491842EBA0
:104B10000450CDE9001012E0E00707D032463B46D2
:104B200040464946FBF78BFF8046894632463B4666
:104B300010461946FBF783FF06460F466410002C0B
:104B4000EAD1DDE90401DDE90023BAF1000F06DA5C
:104B5000FBF775FF42464B46FBF771FF05E0FBF79D
:104B6000E0FF42464B46FBF7DCFF04460E460022C0
:104B7000284BFCF787FA03D84FF0FF30014607E0D7
:104B80000022254B20463146FBF7B2FEFCF761FAC6
:104B9000102409E0002C0ADB0A220023FCF7ACF801
:104BA000039B30321A55641E50EA0102F2D1641C94
:104BB000039AC4F111031444119A012A03D001226B
:104BC00008430DD10AE0084304D000204FF0110B38
:104BD000119072E7A3EB0B056D1E0DE05B4504DD44
:104BE0004FF0000205F1010504E003DA4FF0000286
:104BF000A5F10105002AECD002981199C0E9023113
:104C0000C0E9004579E70000000014400000F03FD3
:104C1000300000000000F0430000E03F30380A2878
:104C200001D2012070470020704700002DE9FF4F9E
:104C300095B09B468946064600250FE2252877D188
:104C400000242746F84A0121059400E0044316F8A1
:104C5000013F203B01FA03F01042F7D130782A28B7
:104C600011D06FF02F033078A0F13002092A16D846
:104C7000059A44F0020402EB820203EB4202104464
:104C8000761C0590EFE759F8042B0592002A03DA09
:104C9000504244F40054059044F00204761C3078ED
:104CA0002E2816D116F8010F44F004042A280DD03E
:104CB0006FF02F023078A0F13003092B09D807EBF1
:104CC000870302EB4303C718761CF3E759F8047B0C
:104CD000761C30786C280FD006DC4C2817D068285A
:104CE0000DD06A2814D104E0742810D07A280FD18E
:104CF0000DE044F400140AE044F4801401E044F4AC
:104D000040147278824202D104F58014761C761C1D
:104D1000307866280BD013DC582877D009DC0028BF
:104D200075D04528F6D04628F4D047281AD19DE101
:104D300018E0632835D0642879D0652812D195E130
:104D4000702873D008DC6728F1D069286FD06E28EE
:104D50000DD06F2806D1B5E073282CD0752875D0FA
:104D6000782874D05A46179990476D1C75E1C4F3A2
:104D70000250022809D003280DD0D9F800100428C9
:104D80000DD00D6009F1040967E1D9F80010EA17A8
:104D9000C1E90052F6E7D9F800100D80F2E70D7076
:104DA000F0E719F8041B8DF8001000208DF80100C1
:104DB000EA46012003E059F804AB4FF0FF306107E9
:104DC0004FF0000102D40DE008F101018846B9421C
:104DD0000FDA8045F8DB1AF808100029F4D108E052
:104DE00008F1010188468142FADB1AF8081000290F
:104DF000F6D105985B46A0EB080721463846179A7E
:104E000000F094FA284400EB080507E04DE029E1A2
:104E10000DE01AF8010B5A4617999047B8F10108AE
:104E2000F7D25B4621463846179A13E142E00A2240
:104E30000092C4F302524FF0000A022A08D059F837
:104E400004CB032A4FEAEC710AD00DE029E02AE0F6
:104E500009F1070121F00702F2E802C1914609E0D9
:104E60000FFA8CFC4FEAEC71042A03D14FFA8CFC48
:104E70004FEAEC71002907DA0A460021DCF1000C48
:104E800061EB02012D2202E0220504D52B228DF8D0
:104E90000420012203E0E20701D02022F7E7904638
:104EA00059E00A2102E010220DE010214FF0000A23
:104EB00000910BE010224FF0000A44F00404082790
:104EC000009203E008224FF0000A0092C4F302525D
:104ED000022A05D059F804CB0021032A08D009E0A2
:104EE00009F1070121F00702F2E802C1914605E04D
:104EF0001FFA8CFC042A01D10CF0FF0C4FF00008C3
:104F0000220728D5702806D0009B83F0100353EAAF
:104F10000A0305D00EE040228DF80420012208E0AB
:104F20005CEA010206D030228DF804208DF80500DD
:104F300002229046009B83F0080353EA0A030AD139
:104F40005CEA010201D1620705D530228DF8042008
:104F50004FF001087F1E582804D034A003900EA8FB
:104F600002900DE036A0F9E753466046009AFBF741
:104F7000C3FE84460398825C0298401E0290027031
:104F80005CEA0100F0D1029806A9081A00F1200A93
:104F9000600702D524F4803400E00127574502DD84
:104FA000A7EB0A0000E0002000EB0A010090059842
:104FB0004144401A0590E00306D45B462146179A07
:104FC000059800F0B3F90544002706E001A85A4609
:104FD000C05D179990476D1C7F1C4745F6DBE003C9
:104FE0000CD55B462146179A059800F09FF90544B9
:104FF00004E030205A46179990476D1C0099481ECE
:1050000000900029F5DC08E0029802995A460078E1
:10501000491C0291179990476D1CBAF10001AAF141
:10502000010AF1DC65E1000009280100303132336A
:1050300034353637383961626364656600000000D4
:1050400030313233343536373839414243444546BE
:105050000000000000F058F90544761C3078002864
:105060007FF4ECAD19B02846BDE8F08F620700D49C
:10507000062709F1070222F0070CFCE80223E146AB
:1050800003F000485FEA080C02D00FF2702C0DE02C
:105090005FEA045C02D50FF2682C07E05FEAC47C8B
:1050A00002D00FF2602C01E0AFF2700C4FF0FF382D
:1050B00023F00043CDF850C065280CD006DC45280D
:1050C00009D046281DD047283DD13DE0662818D09C
:1050D00067287ED138E00021112F01DB112000E08C
:1050E000781CCDE9000106A90EA8FFF7D5FCDDE983
:1050F0000F010E9A03910021009207F1010A049119
:105100004DE04FF000400097CDE9011006A90EA830
:10511000FFF7C2FCDDE90F0203920E9B11990022FA
:10512000DDF80CA00093049211B9791C00EB010A80
:10513000B7EB0A0004D4C0F1FF3007F1010A049074
:10514000AAEB0700019044E0012F00DA01270021BB
:10515000112F01DD112000E03846CDE9000106A93C
:105160000EA8FFF799FCDDE90F010E9A03910021CB
:1051700004910092BA4621070CD40399514500DAF4
:105180008A46BAF1010F05DD009AAAF10101515CCE
:10519000302908D0B84202DA10F1040F06DA0121F2
:1051A000CDE9011015E0AAF10101E9E7002805DCCD
:1051B000049901440491AAEB000102E0411C51450D
:1051C00000DD8A460499401A401C01904FF00040CF
:1051D0000290200704D40198504501DBCDF80480EB
:1051E00000208DF84F0002980DF14F07B0F1004FED
:1051F00025D02B200E9002984FF0020800280CDAE0
:10520000404202902D200E9007E00A210298FBF701
:105210005DFD3031029007F8011DB8F10001A8F1E1
:105220000108F2DC02980028EFD1791E0E98087070
:10523000307800F0200040F0450007F8020D12A879
:10524000C01B00F107081498007800B1012000EBA2
:105250000A01019801EBE07105984144401A401E93
:105260000590E00306D45B462146179A059800F0A6
:105270005DF805441498007818B15A46179990477C
:105280006D1CE00324D55B462146179A059800F073
:105290004DF805441CE00498002807DBDDE9030114
:1052A000884203DD0098405C179901E0179930208F
:1052B0005A469047049805F10105401C0490019856
:1052C000401E019004D12E205A46179990476D1C1C
:1052D000BAF10001AAF1010ADDDC05E017F8010BC3
:1052E0005A46179990476D1CB8F10001A8F10108C2
:1052F000F4DC5B462146179A0598ABE62D000000CA
:105300002B000000200000002DE9F041044600259C
:105310001E461746880404D405E039462020B047CD
:105320006D1C641EF9D52846BDE8F0812DE9F041D9
:10533000044600251E469046C80301D5302700E0EC
:105340002027880404D505E041463846B0476D1C47
:10535000641EF9D52846BDE8F0810A68531C0B602D
:10536000107070472DE9F84F04460D4621F00040BB
:1053700000917349814211DC7249884201DC06D1F7
:105380002CB120462946BDE8F84FFFF755BB6E48C3
:10539000002DCCBF6D496E49BDE8F88F6D49814243
:1053A00011DD6D498142D8BF4FF0FF366DDD2046DB
:1053B0002946FFF717F8042808BFFFF74FFB2046E0
:1053C0002946BDE8F88F6549654F25F000458142C3
:1053D00033DD6449814219DD002632464FF08043B7
:1053E00020462946FBF784FA80468A460122204659
:1053F0002946FBF7A9FD00223B46FBF71AFB424674
:105400005346FBF78EFB04460D463EE00126002284
:10541000BA463B4620462946FBF76AFA80460F46C5
:105420000022534620462946FBF703FB42463B46F3
:10543000FBF777FB04460D4627E04B4981421BDD15
:10544000DFF828A102260022534620462946FBF712
:10545000F6FA00223B46FBF74BFA80460F46002245
:10546000534620462946FBF7E4FA42463B46FBF703
:1054700058FB04460D4608E0032622462B46002032
:105480003B49FBF74EFB04460D4622462B46104691
:105490001946FBF7D4FA8B46824602460B46FBF7C9
:1054A000CEFA07460246334888460B460621784422
:1054B000FFF7EEF952465B46FBF7C1FA82462E48EB
:1054C0008B463A46434605217844FFF7E1F93A46D0
:1054D0004346FBF7B4FA02460B46002E50465946A7
:1054E0000CDAFBF705FA22462B46FBF7A8FA01B0C7
:1054F00022462B46BDE8F04FFBF79EBAFBF7F8F9C2
:1055000022462B46FBF79BFA1C4A7A4402EBC60361
:10551000D3E90023FBF78DFA22462B46FBF789FAE5
:10552000174A7A4402EBC603D3E90023FBF784FA57
:10553000009A002AB8BF81F00041BDE8F88F000052
:10554000000010440000F07F182D4454FB21F93F67
:10555000FB21F9BF0000DC3F0000203E0000F33FCC
:105560000000F03F0000E63F008003400000F83FED
:105570000000F0BFB62A0000742A0000122A0000C2
:10558000DA2900002DE9F04D9446CCF1000423F017
:1055900000464CEA0404524F46EAD4749A468846C0
:1055A00021F00042BC4206D8454240EA050442EAE6
:1055B000D474BC4204D9BDE8F04D6246FFF73FBA4F
:1055C000AAF14055A5F17F6555EA0C040BD00224E1
:1055D00004EAAA74434DDFF810E144EAD87452EAB1
:1055E000000B04D00CE0BDE8F04DFFF7BBBE002C73
:1055F00014BF012CBDE8F08D022C30D0032C32D02A
:1056000056EA0C0B0AD0BE4220D1BA4209D126F08C
:10561000804622F080423346114617E000291ADB0B
:1056200025E0DFF8C8B0FB44002C04BFDBE9000133
:10563000BDE8F08D012C02BFDBE9000181F00041E3
:10564000BDE8F08D022C0AD0032C0CD0BA4212D146
:10565000B8F1000F0BDA23482549BDE8F08D284644
:105660002449BDE8F08D28467146BDE8F08D1D48FF
:105670002149BDE8F08D921B12153C2AC4BF194880
:105680001D490EDCBAF1000FBEBF12F13C0F002025
:10569000014606DB6246FBF744FA21F00041FFF7C2
:1056A00061FE002C08BFBDE8F08D012C04BF81F025
:1056B0000041BDE8F08D114A114B022C07D0FBF7D9
:1056C000B8F92A46BDE8F04D0A4BFBF7B2B9FBF733
:1056D000B0F92A46BDE8F04D064BFBF7ADB9000026
:1056E0000000F07F182D4454FB2109C0262A000039
:1056F000FB21F9BFFB210940FB21F93F075C143373
:1057000026A6A13C38B50446008B762801D0772820
:1057100022D1B622E021204601F0AAFFE0B9012300
:105720006A46F321204601F0CBFC0028F7D19DF812
:105730000000C007F3D1204601F06AFC00280CD01D
:105740000022F521204601F093FF28B96F22F421B1
:10575000204601F08DFF08B1002038BD012038BD82
:105760002DE9FC4115460E46044606236A46F721FC
:1057700001F0A6FC10B10020BDE8FC819DF80000FE
:105780009DF80110000340EA01109DF802109DF8F9
:10579000042040EA11119DF80300B4F902700003DF
:1057A00040EA02109DF8052040EA12132288D81022
:1057B000A0EB4200C2EB23125243B4F90430784309
:1057C0001213C0125A4300EBA23202EB8200803067
:1057D00000123060204600F03FF928600120CBE73E
:1057E0007CB514460D4601AA6946FFF7B9FF0028AB
:1057F0000FD00098FBF704FA0649FBF72FF8286052
:105800000198FBF706FA6FF00701FBF765F82060D7
:1058100001207CBD0000C8422DE9F04F00248246E3
:10582000254687B0A84680226B21D02001F00EFFCC
:105830000120FCF725F801226B21D02001F006FFA2
:1058400000226C21D02001F001FF0120FCF718F8A4
:1058500000223821D02001F0F9FE00222321D0209F
:1058600001F0F4FE00226B21D02001F0EFFE0022B7
:105870002421D02001F0EAFE00226A21D02001F08C
:10588000E5FE0C226A21D02001F0E0FE0120FBF7AA
:10589000F7FF01221A21D02001F0D8FE00221921A1
:1058A000D02001F0D3FE00221C21D02001F0CEFE3A
:1058B0004FF4804940226A21D02001F0C7FE7822AF
:1058C0002321D02001F0C2FE0120FBF7D9FF0022E6
:1058D0002321D02001F0BAFE04AB02227221D02095
:1058E00001F072FBBDF810000C2140BAB0FBF1F7DB
:1058F0000026A34616E004AB0C227421D02001F050
:1059000063FBBDF81000BDF8142040BA01B2BDF829
:10591000120052BA40BA00B212B2761C0D440444CE
:105920009044B6B2BE42E6D398FBF7F095FBF7F58C
:1059300094FBF7F6002802DDA0EB090401E000EB80
:1059400009045F4604AB02227721D02001F03CFB22
:105950009DF810009DF81110000200B2084300905D
:1059600004AB02227A21D02001F02EFB9DF810001A
:105970009DF81110000200B20843019004AB02220E
:105980007D21D02001F020FB9DF810009DF8111022
:10599000000200B20843CDE90207012100206A4657
:1059A00003AB0F4652F820C01CEA010F00D01F5471
:1059B000401C80B20328F5D3E917009805EB51711C
:1059C000A0EBE1000090F117019806EB5171A0EBFC
:1059D000E1000190E117029804EB5171A0EBE100A6
:1059E00002909DF80C10009808438DF81100019862
:1059F0009DF80D10000A8DF81200019808438DF8EB
:105A0000130002989DF80E10000A8DF814000298F9
:105A100008438DF815004846FBF7FBF80746284673
:105A2000FBF7EEF83946FAF719FFCAF80C003046D2
:105A3000FBF7E6F83946FAF711FFCAF810003D46C1
:105A40002046FBF7DDF82946FAF708FFCAF81400EC
:105A500007B0BDE8F08F00002DE9F05F04468B46EB
:105A60005349D0175118A1FB0123B4F9106040F13C
:105A7000FF30A2FB069C00FB013301FB0033F7174C
:105A800003FB06C602FB0768B4F90E504FF0000A8C
:105A9000A5FB017CEE1706FB01C605FB00656E0445
:105AA00046EAD7367F0417EB090546EB0806B4F93A
:105AB0000C701AEB050546EBC709B4F90A60A2FBA6
:105AC00006C803FB06834FEAE67702FB0732B4F908
:105AD00008604FEA1C23A6FB01C84FEAE67707FBE4
